{
  "_format": "hh-sol-artifact-1",
  "contractName": "NFT",
  "sourceName": "contracts/NFT.sol",
  "abi": [
    {
      "inputs": [],
      "stateMutability": "nonpayable",
      "type": "constructor"
    },
    {
      "anonymous": false,
      "inputs": [
        {
          "indexed": true,
          "internalType": "address",
          "name": "owner",
          "type": "address"
        },
        {
          "indexed": true,
          "internalType": "address",
          "name": "approved",
          "type": "address"
        },
        {
          "indexed": true,
          "internalType": "uint256",
          "name": "tokenId",
          "type": "uint256"
        }
      ],
      "name": "Approval",
      "type": "event"
    },
    {
      "anonymous": false,
      "inputs": [
        {
          "indexed": true,
          "internalType": "address",
          "name": "owner",
          "type": "address"
        },
        {
          "indexed": true,
          "internalType": "address",
          "name": "operator",
          "type": "address"
        },
        {
          "indexed": false,
          "internalType": "bool",
          "name": "approved",
          "type": "bool"
        }
      ],
      "name": "ApprovalForAll",
      "type": "event"
    },
    {
      "anonymous": false,
      "inputs": [
        {
          "indexed": true,
          "internalType": "address",
          "name": "previousOwner",
          "type": "address"
        },
        {
          "indexed": true,
          "internalType": "address",
          "name": "newOwner",
          "type": "address"
        }
      ],
      "name": "OwnershipTransferred",
      "type": "event"
    },
    {
      "anonymous": false,
      "inputs": [
        {
          "indexed": true,
          "internalType": "address",
          "name": "from",
          "type": "address"
        },
        {
          "indexed": true,
          "internalType": "address",
          "name": "to",
          "type": "address"
        },
        {
          "indexed": true,
          "internalType": "uint256",
          "name": "tokenId",
          "type": "uint256"
        }
      ],
      "name": "Transfer",
      "type": "event"
    },
    {
      "inputs": [],
      "name": "MINT_PRICE",
      "outputs": [
        {
          "internalType": "uint256",
          "name": "",
          "type": "uint256"
        }
      ],
      "stateMutability": "view",
      "type": "function"
    },
    {
      "inputs": [],
      "name": "TOTAL_SUPPLY",
      "outputs": [
        {
          "internalType": "uint256",
          "name": "",
          "type": "uint256"
        }
      ],
      "stateMutability": "view",
      "type": "function"
    },
    {
      "inputs": [
        {
          "internalType": "address",
          "name": "to",
          "type": "address"
        },
        {
          "internalType": "uint256",
          "name": "tokenId",
          "type": "uint256"
        }
      ],
      "name": "approve",
      "outputs": [],
      "stateMutability": "nonpayable",
      "type": "function"
    },
    {
      "inputs": [
        {
          "internalType": "address",
          "name": "owner",
          "type": "address"
        }
      ],
      "name": "balanceOf",
      "outputs": [
        {
          "internalType": "uint256",
          "name": "",
          "type": "uint256"
        }
      ],
      "stateMutability": "view",
      "type": "function"
    },
    {
      "inputs": [],
      "name": "baseTokenURI",
      "outputs": [
        {
          "internalType": "string",
          "name": "",
          "type": "string"
        }
      ],
      "stateMutability": "view",
      "type": "function"
    },
    {
      "inputs": [
        {
          "internalType": "uint256",
          "name": "tokenId",
          "type": "uint256"
        }
      ],
      "name": "getApproved",
      "outputs": [
        {
          "internalType": "address",
          "name": "",
          "type": "address"
        }
      ],
      "stateMutability": "view",
      "type": "function"
    },
    {
      "inputs": [
        {
          "internalType": "address",
          "name": "owner",
          "type": "address"
        },
        {
          "internalType": "address",
          "name": "operator",
          "type": "address"
        }
      ],
      "name": "isApprovedForAll",
      "outputs": [
        {
          "internalType": "bool",
          "name": "",
          "type": "bool"
        }
      ],
      "stateMutability": "view",
      "type": "function"
    },
    {
      "inputs": [
        {
          "internalType": "address",
          "name": "recipient",
          "type": "address"
        }
      ],
      "name": "mintTo",
      "outputs": [
        {
          "internalType": "uint256",
          "name": "",
          "type": "uint256"
        }
      ],
      "stateMutability": "payable",
      "type": "function"
    },
    {
      "inputs": [],
      "name": "name",
      "outputs": [
        {
          "internalType": "string",
          "name": "",
          "type": "string"
        }
      ],
      "stateMutability": "view",
      "type": "function"
    },
    {
      "inputs": [],
      "name": "owner",
      "outputs": [
        {
          "internalType": "address",
          "name": "",
          "type": "address"
        }
      ],
      "stateMutability": "view",
      "type": "function"
    },
    {
      "inputs": [
        {
          "internalType": "uint256",
          "name": "tokenId",
          "type": "uint256"
        }
      ],
      "name": "ownerOf",
      "outputs": [
        {
          "internalType": "address",
          "name": "",
          "type": "address"
        }
      ],
      "stateMutability": "view",
      "type": "function"
    },
    {
      "inputs": [
        {
          "internalType": "address",
          "name": "dest",
          "type": "address"
        }
      ],
      "name": "payments",
      "outputs": [
        {
          "internalType": "uint256",
          "name": "",
          "type": "uint256"
        }
      ],
      "stateMutability": "view",
      "type": "function"
    },
    {
      "inputs": [],
      "name": "renounceOwnership",
      "outputs": [],
      "stateMutability": "nonpayable",
      "type": "function"
    },
    {
      "inputs": [
        {
          "internalType": "address",
          "name": "from",
          "type": "address"
        },
        {
          "internalType": "address",
          "name": "to",
          "type": "address"
        },
        {
          "internalType": "uint256",
          "name": "tokenId",
          "type": "uint256"
        }
      ],
      "name": "safeTransferFrom",
      "outputs": [],
      "stateMutability": "nonpayable",
      "type": "function"
    },
    {
      "inputs": [
        {
          "internalType": "address",
          "name": "from",
          "type": "address"
        },
        {
          "internalType": "address",
          "name": "to",
          "type": "address"
        },
        {
          "internalType": "uint256",
          "name": "tokenId",
          "type": "uint256"
        },
        {
          "internalType": "bytes",
          "name": "_data",
          "type": "bytes"
        }
      ],
      "name": "safeTransferFrom",
      "outputs": [],
      "stateMutability": "nonpayable",
      "type": "function"
    },
    {
      "inputs": [
        {
          "internalType": "address",
          "name": "operator",
          "type": "address"
        },
        {
          "internalType": "bool",
          "name": "approved",
          "type": "bool"
        }
      ],
      "name": "setApprovalForAll",
      "outputs": [],
      "stateMutability": "nonpayable",
      "type": "function"
    },
    {
      "inputs": [
        {
          "internalType": "string",
          "name": "_baseTokenURI",
          "type": "string"
        }
      ],
      "name": "setBaseTokenURI",
      "outputs": [],
      "stateMutability": "nonpayable",
      "type": "function"
    },
    {
      "inputs": [
        {
          "internalType": "bytes4",
          "name": "interfaceId",
          "type": "bytes4"
        }
      ],
      "name": "supportsInterface",
      "outputs": [
        {
          "internalType": "bool",
          "name": "",
          "type": "bool"
        }
      ],
      "stateMutability": "view",
      "type": "function"
    },
    {
      "inputs": [],
      "name": "symbol",
      "outputs": [
        {
          "internalType": "string",
          "name": "",
          "type": "string"
        }
      ],
      "stateMutability": "view",
      "type": "function"
    },
    {
      "inputs": [
        {
          "internalType": "uint256",
          "name": "tokenId",
          "type": "uint256"
        }
      ],
      "name": "tokenURI",
      "outputs": [
        {
          "internalType": "string",
          "name": "",
          "type": "string"
        }
      ],
      "stateMutability": "view",
      "type": "function"
    },
    {
      "inputs": [
        {
          "internalType": "address",
          "name": "from",
          "type": "address"
        },
        {
          "internalType": "address",
          "name": "to",
          "type": "address"
        },
        {
          "internalType": "uint256",
          "name": "tokenId",
          "type": "uint256"
        }
      ],
      "name": "transferFrom",
      "outputs": [],
      "stateMutability": "nonpayable",
      "type": "function"
    },
    {
      "inputs": [
        {
          "internalType": "address",
          "name": "newOwner",
          "type": "address"
        }
      ],
      "name": "transferOwnership",
      "outputs": [],
      "stateMutability": "nonpayable",
      "type": "function"
    },
    {
      "inputs": [
        {
          "internalType": "address payable",
          "name": "payee",
          "type": "address"
        }
      ],
      "name": "withdrawPayments",
      "outputs": [],
      "stateMutability": "nonpayable",
      "type": "function"
    }
  ],
  "bytecode": "0x60a06040523480156200001157600080fd5b506040518060400160405280600b81526020017f4e46545475746f7269616c0000000000000000000000000000000000000000008152506040518060400160405280600381526020017f4e4654000000000000000000000000000000000000000000000000000000000081525081600090805190602001906200009692919062000230565b508060019080519060200190620000af92919062000230565b505050604051620000c090620002c1565b604051809103906000f080158015620000dd573d6000803e3d6000fd5b5073ffffffffffffffffffffffffffffffffffffffff1660808173ffffffffffffffffffffffffffffffffffffffff1660601b8152505062000134620001286200016260201b60201c565b6200016a60201b60201c565b60405180602001604052806000815250600890805190602001906200015b92919062000230565b5062000353565b600033905090565b6000600660009054906101000a900473ffffffffffffffffffffffffffffffffffffffff16905081600660006101000a81548173ffffffffffffffffffffffffffffffffffffffff021916908373ffffffffffffffffffffffffffffffffffffffff1602179055508173ffffffffffffffffffffffffffffffffffffffff168173ffffffffffffffffffffffffffffffffffffffff167f8be0079c531659141344cd1fd0a4f28419497f9722a3daafe3b4186f6b6457e060405160405180910390a35050565b8280546200023e90620002ee565b90600052602060002090601f016020900481019282620002625760008555620002ae565b82601f106200027d57805160ff1916838001178555620002ae565b82800160010185558215620002ae579182015b82811115620002ad57825182559160200191906001019062000290565b5b509050620002bd9190620002cf565b5090565b610d0980620036f683390190565b5b80821115620002ea576000816000905550600101620002d0565b5090565b600060028204905060018216806200030757607f821691505b602082108114156200031e576200031d62000324565b5b50919050565b7f4e487b7100000000000000000000000000000000000000000000000000000000600052602260045260246000fd5b60805160601c61337d6200037960003960008181610ea401526115bc015261337d6000f3fe6080604052600436106101405760003560e01c8063755edd17116100b6578063c002d23d1161006f578063c002d23d1461044b578063c87b56dd14610476578063d547cfb7146104b3578063e2982c21146104de578063e985e9c51461051b578063f2fde38b1461055857610140565b8063755edd17146103485780638da5cb5b14610378578063902d55a5146103a357806395d89b41146103ce578063a22cb465146103f9578063b88d4fde1461042257610140565b806330176e131161010857806330176e131461023c57806331b3eb941461026557806342842e0e1461028e5780636352211e146102b757806370a08231146102f4578063715018a61461033157610140565b806301ffc9a71461014557806306fdde0314610182578063081812fc146101ad578063095ea7b3146101ea57806323b872dd14610213575b600080fd5b34801561015157600080fd5b5061016c60048036038101906101679190612327565b610581565b60405161017991906127e4565b60405180910390f35b34801561018e57600080fd5b50610197610663565b6040516101a491906127ff565b60405180910390f35b3480156101b957600080fd5b506101d460048036038101906101cf91906123ba565b6106f5565b6040516101e19190612762565b60405180910390f35b3480156101f657600080fd5b50610211600480360381019061020c91906122eb565b61077a565b005b34801561021f57600080fd5b5061023a600480360381019061023591906121e5565b610892565b005b34801561024857600080fd5b50610263600480360381019061025e9190612379565b6108f2565b005b34801561027157600080fd5b5061028c60048036038101906102879190612180565b61090c565b005b34801561029a57600080fd5b506102b560048036038101906102b091906121e5565b610994565b005b3480156102c357600080fd5b506102de60048036038101906102d991906123ba565b6109b4565b6040516102eb9190612762565b60405180910390f35b34801561030057600080fd5b5061031b60048036038101906103169190612157565b610a66565b6040516103289190612a41565b60405180910390f35b34801561033d57600080fd5b50610346610b1e565b005b610362600480360381019061035d9190612157565b610ba6565b60405161036f9190612a41565b60405180910390f35b34801561038457600080fd5b5061038d610c25565b60405161039a9190612762565b60405180910390f35b3480156103af57600080fd5b506103b8610c4f565b6040516103c59190612a41565b60405180910390f35b3480156103da57600080fd5b506103e3610c55565b6040516103f091906127ff565b60405180910390f35b34801561040557600080fd5b50610420600480360381019061041b91906122af565b610ce7565b005b34801561042e57600080fd5b5061044960048036038101906104449190612234565b610cfd565b005b34801561045757600080fd5b50610460610d5f565b60405161046d9190612a41565b60405180910390f35b34801561048257600080fd5b5061049d600480360381019061049891906123ba565b610d6b565b6040516104aa91906127ff565b60405180910390f35b3480156104bf57600080fd5b506104c8610e12565b6040516104d591906127ff565b60405180910390f35b3480156104ea57600080fd5b5061050560048036038101906105009190612157565b610ea0565b6040516105129190612a41565b60405180910390f35b34801561052757600080fd5b50610542600480360381019061053d91906121a9565b610f52565b60405161054f91906127e4565b60405180910390f35b34801561056457600080fd5b5061057f600480360381019061057a9190612157565b610fe6565b005b60007f80ac58cd000000000000000000000000000000000000000000000000000000007bffffffffffffffffffffffffffffffffffffffffffffffffffffffff1916827bffffffffffffffffffffffffffffffffffffffffffffffffffffffff1916148061064c57507f5b5e139f000000000000000000000000000000000000000000000000000000007bffffffffffffffffffffffffffffffffffffffffffffffffffffffff1916827bffffffffffffffffffffffffffffffffffffffffffffffffffffffff1916145b8061065c575061065b826110de565b5b9050919050565b60606000805461067290612ca9565b80601f016020809104026020016040519081016040528092919081815260200182805461069e90612ca9565b80156106eb5780601f106106c0576101008083540402835291602001916106eb565b820191906000526020600020905b8154815290600101906020018083116106ce57829003601f168201915b5050505050905090565b600061070082611148565b61073f576040517f08c379a000000000000000000000000000000000000000000000000000000000815260040161073690612981565b60405180910390fd5b6004600083815260200190815260200160002060009054906101000a900473ffffffffffffffffffffffffffffffffffffffff169050919050565b6000610785826109b4565b90508073ffffffffffffffffffffffffffffffffffffffff168373ffffffffffffffffffffffffffffffffffffffff1614156107f6576040517f08c379a00000000000000000000000000000000000000000000000000000000081526004016107ed906129e1565b60405180910390fd5b8073ffffffffffffffffffffffffffffffffffffffff166108156111b4565b73ffffffffffffffffffffffffffffffffffffffff16148061084457506108438161083e6111b4565b610f52565b5b610883576040517f08c379a000000000000000000000000000000000000000000000000000000000815260040161087a90612901565b60405180910390fd5b61088d83836111bc565b505050565b6108a361089d6111b4565b82611275565b6108e2576040517f08c379a00000000000000000000000000000000000000000000000000000000081526004016108d990612a01565b60405180910390fd5b6108ed838383611353565b505050565b8060089080519060200190610908929190611f51565b5050565b6109146111b4565b73ffffffffffffffffffffffffffffffffffffffff16610932610c25565b73ffffffffffffffffffffffffffffffffffffffff1614610988576040517f08c379a000000000000000000000000000000000000000000000000000000000815260040161097f906129a1565b60405180910390fd5b610991816115ba565b50565b6109af83838360405180602001604052806000815250610cfd565b505050565b6000806002600084815260200190815260200160002060009054906101000a900473ffffffffffffffffffffffffffffffffffffffff169050600073ffffffffffffffffffffffffffffffffffffffff168173ffffffffffffffffffffffffffffffffffffffff161415610a5d576040517f08c379a0000000000000000000000000000000000000000000000000000000008152600401610a5490612941565b60405180910390fd5b80915050919050565b60008073ffffffffffffffffffffffffffffffffffffffff168273ffffffffffffffffffffffffffffffffffffffff161415610ad7576040517f08c379a0000000000000000000000000000000000000000000000000000000008152600401610ace90612921565b60405180910390fd5b600360008373ffffffffffffffffffffffffffffffffffffffff1673ffffffffffffffffffffffffffffffffffffffff168152602001908152602001600020549050919050565b610b266111b4565b73ffffffffffffffffffffffffffffffffffffffff16610b44610c25565b73ffffffffffffffffffffffffffffffffffffffff1614610b9a576040517f08c379a0000000000000000000000000000000000000000000000000000000008152600401610b91906129a1565b60405180910390fd5b610ba46000611648565b565b600080610bb3600761170e565b90506127108110610bf9576040517f08c379a0000000000000000000000000000000000000000000000000000000008152600401610bf090612a21565b60405180910390fd5b610c03600761171c565b6000610c0f600761170e565b9050610c1b8482611732565b8092505050919050565b6000600660009054906101000a900473ffffffffffffffffffffffffffffffffffffffff16905090565b61271081565b606060018054610c6490612ca9565b80601f0160208091040260200160405190810160405280929190818152602001828054610c9090612ca9565b8015610cdd5780601f10610cb257610100808354040283529160200191610cdd565b820191906000526020600020905b815481529060010190602001808311610cc057829003601f168201915b5050505050905090565b610cf9610cf26111b4565b8383611750565b5050565b610d0e610d086111b4565b83611275565b610d4d576040517f08c379a0000000000000000000000000000000000000000000000000000000008152600401610d4490612a01565b60405180910390fd5b610d59848484846118bd565b50505050565b670b1a2bc2ec50000081565b6060610d7682611148565b610db5576040517f08c379a0000000000000000000000000000000000000000000000000000000008152600401610dac906129c1565b60405180910390fd5b6000610dbf611919565b90506000815111610ddf5760405180602001604052806000815250610e0a565b80610de9846119ab565b604051602001610dfa92919061273e565b6040516020818303038152906040525b915050919050565b60088054610e1f90612ca9565b80601f0160208091040260200160405190810160405280929190818152602001828054610e4b90612ca9565b8015610e985780601f10610e6d57610100808354040283529160200191610e98565b820191906000526020600020905b815481529060010190602001808311610e7b57829003601f168201915b505050505081565b60007f000000000000000000000000000000000000000000000000000000000000000073ffffffffffffffffffffffffffffffffffffffff1663e3a9db1a836040518263ffffffff1660e01b8152600401610efb9190612762565b60206040518083038186803b158015610f1357600080fd5b505afa158015610f27573d6000803e3d6000fd5b505050506040513d601f19601f82011682018060405250810190610f4b91906123e3565b9050919050565b6000600560008473ffffffffffffffffffffffffffffffffffffffff1673ffffffffffffffffffffffffffffffffffffffff16815260200190815260200160002060008373ffffffffffffffffffffffffffffffffffffffff1673ffffffffffffffffffffffffffffffffffffffff16815260200190815260200160002060009054906101000a900460ff16905092915050565b610fee6111b4565b73ffffffffffffffffffffffffffffffffffffffff1661100c610c25565b73ffffffffffffffffffffffffffffffffffffffff1614611062576040517f08c379a0000000000000000000000000000000000000000000000000000000008152600401611059906129a1565b60405180910390fd5b600073ffffffffffffffffffffffffffffffffffffffff168173ffffffffffffffffffffffffffffffffffffffff1614156110d2576040517f08c379a00000000000000000000000000000000000000000000000000000000081526004016110c990612841565b60405180910390fd5b6110db81611648565b50565b60007f01ffc9a7000000000000000000000000000000000000000000000000000000007bffffffffffffffffffffffffffffffffffffffffffffffffffffffff1916827bffffffffffffffffffffffffffffffffffffffffffffffffffffffff1916149050919050565b60008073ffffffffffffffffffffffffffffffffffffffff166002600084815260200190815260200160002060009054906101000a900473ffffffffffffffffffffffffffffffffffffffff1673ffffffffffffffffffffffffffffffffffffffff1614159050919050565b600033905090565b816004600083815260200190815260200160002060006101000a81548173ffffffffffffffffffffffffffffffffffffffff021916908373ffffffffffffffffffffffffffffffffffffffff160217905550808273ffffffffffffffffffffffffffffffffffffffff1661122f836109b4565b73ffffffffffffffffffffffffffffffffffffffff167f8c5be1e5ebec7d5bd14f71427d1e84f3dd0314c0f7b2291e5b200ac8c7c3b92560405160405180910390a45050565b600061128082611148565b6112bf576040517f08c379a00000000000000000000000000000000000000000000000000000000081526004016112b6906128e1565b60405180910390fd5b60006112ca836109b4565b90508073ffffffffffffffffffffffffffffffffffffffff168473ffffffffffffffffffffffffffffffffffffffff16148061133957508373ffffffffffffffffffffffffffffffffffffffff16611321846106f5565b73ffffffffffffffffffffffffffffffffffffffff16145b8061134a57506113498185610f52565b5b91505092915050565b8273ffffffffffffffffffffffffffffffffffffffff16611373826109b4565b73ffffffffffffffffffffffffffffffffffffffff16146113c9576040517f08c379a00000000000000000000000000000000000000000000000000000000081526004016113c090612861565b60405180910390fd5b600073ffffffffffffffffffffffffffffffffffffffff168273ffffffffffffffffffffffffffffffffffffffff161415611439576040517f08c379a0000000000000000000000000000000000000000000000000000000008152600401611430906128a1565b60405180910390fd5b611444838383611b58565b61144f6000826111bc565b6001600360008573ffffffffffffffffffffffffffffffffffffffff1673ffffffffffffffffffffffffffffffffffffffff168152602001908152602001600020600082825461149f9190612bad565b925050819055506001600360008473ffffffffffffffffffffffffffffffffffffffff1673ffffffffffffffffffffffffffffffffffffffff16815260200190815260200160002060008282546114f69190612b26565b92505081905550816002600083815260200190815260200160002060006101000a81548173ffffffffffffffffffffffffffffffffffffffff021916908373ffffffffffffffffffffffffffffffffffffffff160217905550808273ffffffffffffffffffffffffffffffffffffffff168473ffffffffffffffffffffffffffffffffffffffff167fddf252ad1be2c89b69c2b068fc378daa952ba7f163c4a11628f55a4df523b3ef60405160405180910390a46115b5838383611b5d565b505050565b7f000000000000000000000000000000000000000000000000000000000000000073ffffffffffffffffffffffffffffffffffffffff166351cff8d9826040518263ffffffff1660e01b8152600401611613919061277d565b600060405180830381600087803b15801561162d57600080fd5b505af1158015611641573d6000803e3d6000fd5b5050505050565b6000600660009054906101000a900473ffffffffffffffffffffffffffffffffffffffff16905081600660006101000a81548173ffffffffffffffffffffffffffffffffffffffff021916908373ffffffffffffffffffffffffffffffffffffffff1602179055508173ffffffffffffffffffffffffffffffffffffffff168173ffffffffffffffffffffffffffffffffffffffff167f8be0079c531659141344cd1fd0a4f28419497f9722a3daafe3b4186f6b6457e060405160405180910390a35050565b600081600001549050919050565b6001816000016000828254019250508190555050565b61174c828260405180602001604052806000815250611b62565b5050565b8173ffffffffffffffffffffffffffffffffffffffff168373ffffffffffffffffffffffffffffffffffffffff1614156117bf576040517f08c379a00000000000000000000000000000000000000000000000000000000081526004016117b6906128c1565b60405180910390fd5b80600560008573ffffffffffffffffffffffffffffffffffffffff1673ffffffffffffffffffffffffffffffffffffffff16815260200190815260200160002060008473ffffffffffffffffffffffffffffffffffffffff1673ffffffffffffffffffffffffffffffffffffffff16815260200190815260200160002060006101000a81548160ff0219169083151502179055508173ffffffffffffffffffffffffffffffffffffffff168373ffffffffffffffffffffffffffffffffffffffff167f17307eab39ab6107e8899845ad3d59bd9653f200f220920489ca2b5937696c31836040516118b091906127e4565b60405180910390a3505050565b6118c8848484611353565b6118d484848484611bbd565b611913576040517f08c379a000000000000000000000000000000000000000000000000000000000815260040161190a90612821565b60405180910390fd5b50505050565b60606008805461192890612ca9565b80601f016020809104026020016040519081016040528092919081815260200182805461195490612ca9565b80156119a15780601f10611976576101008083540402835291602001916119a1565b820191906000526020600020905b81548152906001019060200180831161198457829003601f168201915b5050505050905090565b606060008214156119f3576040518060400160405280600181526020017f30000000000000000000000000000000000000000000000000000000000000008152509050611b53565b600082905060005b60008214611a25578080611a0e90612d0c565b915050600a82611a1e9190612b7c565b91506119fb565b60008167ffffffffffffffff811115611a67577f4e487b7100000000000000000000000000000000000000000000000000000000600052604160045260246000fd5b6040519080825280601f01601f191660200182016040528015611a995781602001600182028036833780820191505090505b5090505b60008514611b4c57600182611ab29190612bad565b9150600a85611ac19190612d55565b6030611acd9190612b26565b60f81b818381518110611b09577f4e487b7100000000000000000000000000000000000000000000000000000000600052603260045260246000fd5b60200101907effffffffffffffffffffffffffffffffffffffffffffffffffffffffffffff1916908160001a905350600a85611b459190612b7c565b9450611a9d565b8093505050505b919050565b505050565b505050565b611b6c8383611d54565b611b796000848484611bbd565b611bb8576040517f08c379a0000000000000000000000000000000000000000000000000000000008152600401611baf90612821565b60405180910390fd5b505050565b6000611bde8473ffffffffffffffffffffffffffffffffffffffff16611f2e565b15611d47578373ffffffffffffffffffffffffffffffffffffffff1663150b7a02611c076111b4565b8786866040518563ffffffff1660e01b8152600401611c299493929190612798565b602060405180830381600087803b158015611c4357600080fd5b505af1925050508015611c7457506040513d601f19601f82011682018060405250810190611c719190612350565b60015b611cf7573d8060008114611ca4576040519150601f19603f3d011682016040523d82523d6000602084013e611ca9565b606091505b50600081511415611cef576040517f08c379a0000000000000000000000000000000000000000000000000000000008152600401611ce690612821565b60405180910390fd5b805181602001fd5b63150b7a0260e01b7bffffffffffffffffffffffffffffffffffffffffffffffffffffffff1916817bffffffffffffffffffffffffffffffffffffffffffffffffffffffff191614915050611d4c565b600190505b949350505050565b600073ffffffffffffffffffffffffffffffffffffffff168273ffffffffffffffffffffffffffffffffffffffff161415611dc4576040517f08c379a0000000000000000000000000000000000000000000000000000000008152600401611dbb90612961565b60405180910390fd5b611dcd81611148565b15611e0d576040517f08c379a0000000000000000000000000000000000000000000000000000000008152600401611e0490612881565b60405180910390fd5b611e1960008383611b58565b6001600360008473ffffffffffffffffffffffffffffffffffffffff1673ffffffffffffffffffffffffffffffffffffffff1681526020019081526020016000206000828254611e699190612b26565b92505081905550816002600083815260200190815260200160002060006101000a81548173ffffffffffffffffffffffffffffffffffffffff021916908373ffffffffffffffffffffffffffffffffffffffff160217905550808273ffffffffffffffffffffffffffffffffffffffff16600073ffffffffffffffffffffffffffffffffffffffff167fddf252ad1be2c89b69c2b068fc378daa952ba7f163c4a11628f55a4df523b3ef60405160405180910390a4611f2a60008383611b5d565b5050565b6000808273ffffffffffffffffffffffffffffffffffffffff163b119050919050565b828054611f5d90612ca9565b90600052602060002090601f016020900481019282611f7f5760008555611fc6565b82601f10611f9857805160ff1916838001178555611fc6565b82800160010185558215611fc6579182015b82811115611fc5578251825591602001919060010190611faa565b5b509050611fd39190611fd7565b5090565b5b80821115611ff0576000816000905550600101611fd8565b5090565b600061200761200284612a81565b612a5c565b90508281526020810184848401111561201f57600080fd5b61202a848285612c67565b509392505050565b600061204561204084612ab2565b612a5c565b90508281526020810184848401111561205d57600080fd5b612068848285612c67565b509392505050565b60008135905061207f816132d4565b92915050565b600081359050612094816132eb565b92915050565b6000813590506120a981613302565b92915050565b6000813590506120be81613319565b92915050565b6000815190506120d381613319565b92915050565b600082601f8301126120ea57600080fd5b81356120fa848260208601611ff4565b91505092915050565b600082601f83011261211457600080fd5b8135612124848260208601612032565b91505092915050565b60008135905061213c81613330565b92915050565b60008151905061215181613330565b92915050565b60006020828403121561216957600080fd5b600061217784828501612070565b91505092915050565b60006020828403121561219257600080fd5b60006121a084828501612085565b91505092915050565b600080604083850312156121bc57600080fd5b60006121ca85828601612070565b92505060206121db85828601612070565b9150509250929050565b6000806000606084860312156121fa57600080fd5b600061220886828701612070565b935050602061221986828701612070565b925050604061222a8682870161212d565b9150509250925092565b6000806000806080858703121561224a57600080fd5b600061225887828801612070565b945050602061226987828801612070565b935050604061227a8782880161212d565b925050606085013567ffffffffffffffff81111561229757600080fd5b6122a3878288016120d9565b91505092959194509250565b600080604083850312156122c257600080fd5b60006122d085828601612070565b92505060206122e18582860161209a565b9150509250929050565b600080604083850312156122fe57600080fd5b600061230c85828601612070565b925050602061231d8582860161212d565b9150509250929050565b60006020828403121561233957600080fd5b6000612347848285016120af565b91505092915050565b60006020828403121561236257600080fd5b6000612370848285016120c4565b91505092915050565b60006020828403121561238b57600080fd5b600082013567ffffffffffffffff8111156123a557600080fd5b6123b184828501612103565b91505092915050565b6000602082840312156123cc57600080fd5b60006123da8482850161212d565b91505092915050565b6000602082840312156123f557600080fd5b600061240384828501612142565b91505092915050565b61241581612bf3565b82525050565b61242481612be1565b82525050565b61243381612c05565b82525050565b600061244482612ae3565b61244e8185612af9565b935061245e818560208601612c76565b61246781612e42565b840191505092915050565b600061247d82612aee565b6124878185612b0a565b9350612497818560208601612c76565b6124a081612e42565b840191505092915050565b60006124b682612aee565b6124c08185612b1b565b93506124d0818560208601612c76565b80840191505092915050565b60006124e9603283612b0a565b91506124f482612e53565b604082019050919050565b600061250c602683612b0a565b915061251782612ea2565b604082019050919050565b600061252f602583612b0a565b915061253a82612ef1565b604082019050919050565b6000612552601c83612b0a565b915061255d82612f40565b602082019050919050565b6000612575602483612b0a565b915061258082612f69565b604082019050919050565b6000612598601983612b0a565b91506125a382612fb8565b602082019050919050565b60006125bb602c83612b0a565b91506125c682612fe1565b604082019050919050565b60006125de603883612b0a565b91506125e982613030565b604082019050919050565b6000612601602a83612b0a565b915061260c8261307f565b604082019050919050565b6000612624602983612b0a565b915061262f826130ce565b604082019050919050565b6000612647602083612b0a565b91506126528261311d565b602082019050919050565b600061266a602c83612b0a565b915061267582613146565b604082019050919050565b600061268d602083612b0a565b915061269882613195565b602082019050919050565b60006126b0602f83612b0a565b91506126bb826131be565b604082019050919050565b60006126d3602183612b0a565b91506126de8261320d565b604082019050919050565b60006126f6603183612b0a565b91506127018261325c565b604082019050919050565b6000612719601283612b0a565b9150612724826132ab565b602082019050919050565b61273881612c5d565b82525050565b600061274a82856124ab565b915061275682846124ab565b91508190509392505050565b6000602082019050612777600083018461241b565b92915050565b6000602082019050612792600083018461240c565b92915050565b60006080820190506127ad600083018761241b565b6127ba602083018661241b565b6127c7604083018561272f565b81810360608301526127d98184612439565b905095945050505050565b60006020820190506127f9600083018461242a565b92915050565b600060208201905081810360008301526128198184612472565b905092915050565b6000602082019050818103600083015261283a816124dc565b9050919050565b6000602082019050818103600083015261285a816124ff565b9050919050565b6000602082019050818103600083015261287a81612522565b9050919050565b6000602082019050818103600083015261289a81612545565b9050919050565b600060208201905081810360008301526128ba81612568565b9050919050565b600060208201905081810360008301526128da8161258b565b9050919050565b600060208201905081810360008301526128fa816125ae565b9050919050565b6000602082019050818103600083015261291a816125d1565b9050919050565b6000602082019050818103600083015261293a816125f4565b9050919050565b6000602082019050818103600083015261295a81612617565b9050919050565b6000602082019050818103600083015261297a8161263a565b9050919050565b6000602082019050818103600083015261299a8161265d565b9050919050565b600060208201905081810360008301526129ba81612680565b9050919050565b600060208201905081810360008301526129da816126a3565b9050919050565b600060208201905081810360008301526129fa816126c6565b9050919050565b60006020820190508181036000830152612a1a816126e9565b9050919050565b60006020820190508181036000830152612a3a8161270c565b9050919050565b6000602082019050612a56600083018461272f565b92915050565b6000612a66612a77565b9050612a728282612cdb565b919050565b6000604051905090565b600067ffffffffffffffff821115612a9c57612a9b612e13565b5b612aa582612e42565b9050602081019050919050565b600067ffffffffffffffff821115612acd57612acc612e13565b5b612ad682612e42565b9050602081019050919050565b600081519050919050565b600081519050919050565b600082825260208201905092915050565b600082825260208201905092915050565b600081905092915050565b6000612b3182612c5d565b9150612b3c83612c5d565b9250827fffffffffffffffffffffffffffffffffffffffffffffffffffffffffffffffff03821115612b7157612b70612d86565b5b828201905092915050565b6000612b8782612c5d565b9150612b9283612c5d565b925082612ba257612ba1612db5565b5b828204905092915050565b6000612bb882612c5d565b9150612bc383612c5d565b925082821015612bd657612bd5612d86565b5b828203905092915050565b6000612bec82612c3d565b9050919050565b6000612bfe82612c3d565b9050919050565b60008115159050919050565b60007fffffffff0000000000000000000000000000000000000000000000000000000082169050919050565b600073ffffffffffffffffffffffffffffffffffffffff82169050919050565b6000819050919050565b82818337600083830152505050565b60005b83811015612c94578082015181840152602081019050612c79565b83811115612ca3576000848401525b50505050565b60006002820490506001821680612cc157607f821691505b60208210811415612cd557612cd4612de4565b5b50919050565b612ce482612e42565b810181811067ffffffffffffffff82111715612d0357612d02612e13565b5b80604052505050565b6000612d1782612c5d565b91507fffffffffffffffffffffffffffffffffffffffffffffffffffffffffffffffff821415612d4a57612d49612d86565b5b600182019050919050565b6000612d6082612c5d565b9150612d6b83612c5d565b925082612d7b57612d7a612db5565b5b828206905092915050565b7f4e487b7100000000000000000000000000000000000000000000000000000000600052601160045260246000fd5b7f4e487b7100000000000000000000000000000000000000000000000000000000600052601260045260246000fd5b7f4e487b7100000000000000000000000000000000000000000000000000000000600052602260045260246000fd5b7f4e487b7100000000000000000000000000000000000000000000000000000000600052604160045260246000fd5b6000601f19601f8301169050919050565b7f4552433732313a207472616e7366657220746f206e6f6e20455243373231526560008201527f63656976657220696d706c656d656e7465720000000000000000000000000000602082015250565b7f4f776e61626c653a206e6577206f776e657220697320746865207a65726f206160008201527f6464726573730000000000000000000000000000000000000000000000000000602082015250565b7f4552433732313a207472616e736665722066726f6d20696e636f72726563742060008201527f6f776e6572000000000000000000000000000000000000000000000000000000602082015250565b7f4552433732313a20746f6b656e20616c7265616479206d696e74656400000000600082015250565b7f4552433732313a207472616e7366657220746f20746865207a65726f2061646460008201527f7265737300000000000000000000000000000000000000000000000000000000602082015250565b7f4552433732313a20617070726f766520746f2063616c6c657200000000000000600082015250565b7f4552433732313a206f70657261746f7220717565727920666f72206e6f6e657860008201527f697374656e7420746f6b656e0000000000000000000000000000000000000000602082015250565b7f4552433732313a20617070726f76652063616c6c6572206973206e6f74206f7760008201527f6e6572206e6f7220617070726f76656420666f7220616c6c0000000000000000602082015250565b7f4552433732313a2062616c616e636520717565727920666f7220746865207a6560008201527f726f206164647265737300000000000000000000000000000000000000000000602082015250565b7f4552433732313a206f776e657220717565727920666f72206e6f6e657869737460008201527f656e7420746f6b656e0000000000000000000000000000000000000000000000602082015250565b7f4552433732313a206d696e7420746f20746865207a65726f2061646472657373600082015250565b7f4552433732313a20617070726f76656420717565727920666f72206e6f6e657860008201527f697374656e7420746f6b656e0000000000000000000000000000000000000000602082015250565b7f4f776e61626c653a2063616c6c6572206973206e6f7420746865206f776e6572600082015250565b7f4552433732314d657461646174613a2055524920717565727920666f72206e6f60008201527f6e6578697374656e7420746f6b656e0000000000000000000000000000000000602082015250565b7f4552433732313a20617070726f76616c20746f2063757272656e74206f776e6560008201527f7200000000000000000000000000000000000000000000000000000000000000602082015250565b7f4552433732313a207472616e736665722063616c6c6572206973206e6f74206f60008201527f776e6572206e6f7220617070726f766564000000000000000000000000000000602082015250565b7f4d617820737570706c7920726561636865640000000000000000000000000000600082015250565b6132dd81612be1565b81146132e857600080fd5b50565b6132f481612bf3565b81146132ff57600080fd5b50565b61330b81612c05565b811461331657600080fd5b50565b61332281612c11565b811461332d57600080fd5b50565b61333981612c5d565b811461334457600080fd5b5056fea2646970667358221220ec4af813b3bdf7edcedda84324a8a7defeca9c7ff41bfa1820a239907f58649264736f6c63430008010033608060405234801561001057600080fd5b5061002d61002261003260201b60201c565b61003a60201b60201c565b6100fe565b600033905090565b60008060009054906101000a900473ffffffffffffffffffffffffffffffffffffffff169050816000806101000a81548173ffffffffffffffffffffffffffffffffffffffff021916908373ffffffffffffffffffffffffffffffffffffffff1602179055508173ffffffffffffffffffffffffffffffffffffffff168173ffffffffffffffffffffffffffffffffffffffff167f8be0079c531659141344cd1fd0a4f28419497f9722a3daafe3b4186f6b6457e060405160405180910390a35050565b610bfc8061010d6000396000f3fe6080604052600436106100555760003560e01c806351cff8d91461005a578063715018a6146100835780638da5cb5b1461009a578063e3a9db1a146100c5578063f2fde38b14610102578063f340fa011461012b575b600080fd5b34801561006657600080fd5b50610081600480360381019061007c91906107f5565b610147565b005b34801561008f57600080fd5b506100986102c7565b005b3480156100a657600080fd5b506100af61034f565b6040516100bc9190610900565b60405180910390f35b3480156100d157600080fd5b506100ec60048036038101906100e791906107cc565b610378565b6040516100f9919061099b565b60405180910390f35b34801561010e57600080fd5b50610129600480360381019061012491906107cc565b6103c1565b005b610145600480360381019061014091906107cc565b6104b9565b005b61014f6105e2565b73ffffffffffffffffffffffffffffffffffffffff1661016d61034f565b73ffffffffffffffffffffffffffffffffffffffff16146101c3576040517f08c379a00000000000000000000000000000000000000000000000000000000081526004016101ba9061097b565b60405180910390fd5b6000600160008373ffffffffffffffffffffffffffffffffffffffff1673ffffffffffffffffffffffffffffffffffffffff1681526020019081526020016000205490506000600160008473ffffffffffffffffffffffffffffffffffffffff1673ffffffffffffffffffffffffffffffffffffffff16815260200190815260200160002081905550610275818373ffffffffffffffffffffffffffffffffffffffff166105ea90919063ffffffff16565b8173ffffffffffffffffffffffffffffffffffffffff167f7084f5476618d8e60b11ef0d7d3f06914655adb8793e28ff7f018d4c76d505d5826040516102bb919061099b565b60405180910390a25050565b6102cf6105e2565b73ffffffffffffffffffffffffffffffffffffffff166102ed61034f565b73ffffffffffffffffffffffffffffffffffffffff1614610343576040517f08c379a000000000000000000000000000000000000000000000000000000000815260040161033a9061097b565b60405180910390fd5b61034d60006106de565b565b60008060009054906101000a900473ffffffffffffffffffffffffffffffffffffffff16905090565b6000600160008373ffffffffffffffffffffffffffffffffffffffff1673ffffffffffffffffffffffffffffffffffffffff168152602001908152602001600020549050919050565b6103c96105e2565b73ffffffffffffffffffffffffffffffffffffffff166103e761034f565b73ffffffffffffffffffffffffffffffffffffffff161461043d576040517f08c379a00000000000000000000000000000000000000000000000000000000081526004016104349061097b565b60405180910390fd5b600073ffffffffffffffffffffffffffffffffffffffff168173ffffffffffffffffffffffffffffffffffffffff1614156104ad576040517f08c379a00000000000000000000000000000000000000000000000000000000081526004016104a49061091b565b60405180910390fd5b6104b6816106de565b50565b6104c16105e2565b73ffffffffffffffffffffffffffffffffffffffff166104df61034f565b73ffffffffffffffffffffffffffffffffffffffff1614610535576040517f08c379a000000000000000000000000000000000000000000000000000000000815260040161052c9061097b565b60405180910390fd5b600034905080600160008473ffffffffffffffffffffffffffffffffffffffff1673ffffffffffffffffffffffffffffffffffffffff168152602001908152602001600020600082825461058991906109d2565b925050819055508173ffffffffffffffffffffffffffffffffffffffff167f2da466a7b24304f47e87fa2e1e5a81b9831ce54fec19055ce277ca2f39ba42c4826040516105d6919061099b565b60405180910390a25050565b600033905090565b8047101561062d576040517f08c379a00000000000000000000000000000000000000000000000000000000081526004016106249061095b565b60405180910390fd5b60008273ffffffffffffffffffffffffffffffffffffffff1682604051610653906108eb565b60006040518083038185875af1925050503d8060008114610690576040519150601f19603f3d011682016040523d82523d6000602084013e610695565b606091505b50509050806106d9576040517f08c379a00000000000000000000000000000000000000000000000000000000081526004016106d09061093b565b60405180910390fd5b505050565b60008060009054906101000a900473ffffffffffffffffffffffffffffffffffffffff169050816000806101000a81548173ffffffffffffffffffffffffffffffffffffffff021916908373ffffffffffffffffffffffffffffffffffffffff1602179055508173ffffffffffffffffffffffffffffffffffffffff168173ffffffffffffffffffffffffffffffffffffffff167f8be0079c531659141344cd1fd0a4f28419497f9722a3daafe3b4186f6b6457e060405160405180910390a35050565b6000813590506107b181610b98565b92915050565b6000813590506107c681610baf565b92915050565b6000602082840312156107de57600080fd5b60006107ec848285016107a2565b91505092915050565b60006020828403121561080757600080fd5b6000610815848285016107b7565b91505092915050565b61082781610a28565b82525050565b600061083a6026836109c1565b915061084582610aa5565b604082019050919050565b600061085d603a836109c1565b915061086882610af4565b604082019050919050565b6000610880601d836109c1565b915061088b82610b43565b602082019050919050565b60006108a36020836109c1565b91506108ae82610b6c565b602082019050919050565b60006108c66000836109b6565b91506108d182610b95565b600082019050919050565b6108e581610a6c565b82525050565b60006108f6826108b9565b9150819050919050565b6000602082019050610915600083018461081e565b92915050565b600060208201905081810360008301526109348161082d565b9050919050565b6000602082019050818103600083015261095481610850565b9050919050565b6000602082019050818103600083015261097481610873565b9050919050565b6000602082019050818103600083015261099481610896565b9050919050565b60006020820190506109b060008301846108dc565b92915050565b600081905092915050565b600082825260208201905092915050565b60006109dd82610a6c565b91506109e883610a6c565b9250827fffffffffffffffffffffffffffffffffffffffffffffffffffffffffffffffff03821115610a1d57610a1c610a76565b5b828201905092915050565b6000610a3382610a4c565b9050919050565b6000610a4582610a4c565b9050919050565b600073ffffffffffffffffffffffffffffffffffffffff82169050919050565b6000819050919050565b7f4e487b7100000000000000000000000000000000000000000000000000000000600052601160045260246000fd5b7f4f776e61626c653a206e6577206f776e657220697320746865207a65726f206160008201527f6464726573730000000000000000000000000000000000000000000000000000602082015250565b7f416464726573733a20756e61626c6520746f2073656e642076616c75652c207260008201527f6563697069656e74206d61792068617665207265766572746564000000000000602082015250565b7f416464726573733a20696e73756666696369656e742062616c616e6365000000600082015250565b7f4f776e61626c653a2063616c6c6572206973206e6f7420746865206f776e6572600082015250565b50565b610ba181610a28565b8114610bac57600080fd5b50565b610bb881610a3a565b8114610bc357600080fd5b5056fea264697066735822122073b307195fd92b28f2600edbbb914776573abe0392628b3f8a5ee2d6ab956cfa64736f6c63430008010033",
  "linkReferences": {},
  "deployedLinkReferences": {}
}